:020000021000EC
:10B00000008000205D3902009D3902009F39020056
:10B010000000000000000000000000000000000030
:10B02000000000000000000000000000A139020044
:10B030000000000000000000A3390200A539020052
:10B04000F15D0200A739020055800200E57302009D
:10B05000A73902000000000005690200A7390200BC
:10B06000A7390200A7390200A7390200A739020058
:10B07000A7390200A7390200A7390200A739020048
:10B08000A7390200B5C00100A7390200A7390200A4
:10B0900005C10100A7390200DDD30200A739020073
:10B0A000A7390200A73902000000000000000000DC
:10B0B0000000000000000000000000000000000090
:10B0C00010B5064C2378002B07D1054B002B02D07E
:10B0D000044800E000BF0123237010BD0C2A0020AB
:10B0E00000000000407D0300044B10B5002B03D08E
:10B0F0000349044800E000BF10BDC0460000000046
:10B10000102A0020407D0300402292029A1A9246A3
:10B110007047C046174B002B00D1134B9D46FFF7DD
:10B12000F3FF00218B460F461348144A121A12F0FF
:10B130009FFD0E4B002B00D098470D4B002B00D0ED
:10B1400098470020002104000D000D48002802D07F
:10B150000C4816F0FBFE12F0F3FC200029000AF068
:10B160009BFB12F0DDFCC046000008000000000060
:10B1700000000000008000200C2A0020D0380020B1
:10B180004D1F0300250C030080B586B000AF78602A
:10B190000C217B1800221A807B1800225A607B1831
:10B1A0007A689A607B1804481A00002100F018F8A9
:10B1B000C046BD4606B080BD0140000080B500AF6E
:10B1C000BFF34F8FC046044B044ADA60BFF34F8F82
:10B1D000C046C046C046FCE700ED00E00400FA05AA
:10B1E00080B584B000AFF860B9607A60054B190093
:10B1F00001200DF0F7FBFFF7E1FFC046BD4604B0AC
:10B2000080BDC0463C6F030080B582B000AF78605F
:10B210007B68032213405A425341DBB21800BD46FB
:10B2200002B080BD80B582B000AF0200FB1D1A7075
:10B23000FB1D1B789AB2074B1B889A4204D2FB1D58
:10B240001B780133DBB200E000231800BD4602B0DA
:10B2500080BDC046342A002080B582B000AFFB1DFF
:10B260000A4A12781A700A4B1B78DBB21800FFF7F3
:10B27000D9FF03001A00FB1D1B789B1A5A42534149
:10B28000DBB21800BD4602B080BDC046302A0020A7
:10B29000312A002080B582B000AFFB1D074A12782A
:10B2A0001A70074B1B78DBB2FA1D1278D31A5A4278
:10B2B0005341DBB21800BD4602B080BD302A0020E9
:10B2C000312A002080B584B000AF3A60BB1D021C5B
:10B2D0001A803B1D0A1C1A803B1D1B8801339AB241
:10B2E0000E23FB18D2001A803B681800FFF78CFF72
:10B2F00003001A0001235340DBB2002B01D00723C7
:10B3000018E00E4B3A681A600E23FB181B883A6847
:10B31000D2180B4B1A600B4B00221A700A4B0022FA
:10B320001A700A4BBA1D12881A80094B3A1D1288EE
:10B330001A8000231800BD4604B080BD282A0020D2
:10B340002C2A0020312A0020302A0020322A002016
:10B35000342A0020B0B586B000AFF8607A600A20C9
:10B360003B180A1C1A80384B1B883A1812889A42DC
:10B3700062D812243B19012252421A8011217B18F3
:10B3800000221A707B18180001F058F8FFF764FFCC
:10B39000031E0ED12D4B1B78DAB23B191A802B4BB2
:10B3A0001B78DBB21800FFF73DFF03001A00274BA4
:10B3B0001A701123FB181B78180001F04BF81224A7
:10B3C0003B191B88224A934233D0224B1A683B19FF
:10B3D0001B88DB00D3187A681A60FB68002B1CD02E
:10B3E0000A257B191B88002B17D01B4B1B683A19A9
:10B3F0001288154909884A4398187B191A88FB68EE
:10B40000190012F0E3FB134B1A683B191B88DB0091
:10B41000D3187A1912889A8008E00E4B1A68122302
:10B42000FB181B88DB00D31800229A8000237B6165
:10B4300004E004237B6101E009237B617B69180040
:10B44000BD4606B0B0BDC046322A0020312A0020D9
:10B45000FFFF0000282A00202C2A002080B500AF22
:10B4600000231800BD4680BD80B584B000AF2FE03A
:10B47000204B1B78DAB20E203B181A801E4B1B683B
:10B480003A1812881D4909884A439B18BB601C4B17
:10B490001A683B181B88DB00D218BB1D92881A80E3
:10B4A000174B1A683B181B88DB00D3181B683B60DE
:10B4B000BB1D1988BA683B68100098470D4B1B7874
:10B4C000DBB21800FFF7AEFE03001A00094B1A703A
:10B4D000FFF7C4FF03001A0001235340DBB2002B27
:10B4E00003D0FFF7D7FE031EC2D0C046BD4604B04E
:10B4F00080BDC046302A00202C2A0020322A00209D
:10B50000282A002080B582B000AF0200FB1D1A700F
:10B51000FB1D1B781A001F231A40044B0121914088
:10B520000A001A60C046BD4602B080BD00E100E0DE
:10B5300080B582B000AF0200FB1D1A70FB1D1B78A6
:10B540001A001F231340054901229A40130080224C
:10B550008B50C046BD4602B080BDC04600E100E051
:10B5600080B582B000AF0200FB1D1A70FB1D1B7876
:10B570001A001F231340054901229A4080235B00D3
:10B58000CA50C046BD4602B080BDC04600E100E0E2
:10B5900080B582B000AF0200FB1D1A70FB1D1B7846
:10B5A0001A001F231340054901229A40C0235B0063
:10B5B000CA50C046BD4602B080BDC04600E100E0B2
:10B5C00090B583B000AF02003960FB1D1A70FB1DFF
:10B5D0001B787F2B32D92F4AFB1D1B7819000F23B4
:10B5E0000B40083B9B0806339B00D31804331B68B1
:10B5F000FA1D1278110003220A40D200FF21914067
:10B600000A00D2431A4011003B689B01FF221A40F6
:10B61000FB1D1B78180003230340DB009A401D48E4
:10B62000FB1D1B781C000F232340083B9B080A438B
:10B6300006339B00C31804331A6027E0164AFB1D2B
:10B640001B785BB29B08C0339B009B58FA1D127895
:10B65000110003220A40D200FF2191400A00D24388
:10B660001A4011003B689B01FF221A40FB1D1B780A
:10B67000180003230340DB009A400748FB1D1B789A
:10B680005BB29B080A43C0339B001A50C046BD46BC
:10B6900003B090BD00ED00E000E100E080B582B0B5
:10B6A00000AF78607B68032213405A425341DBB2FB
:10B6B0001800BD4602B080BD80B584B000AF786090
:10B6C0000D4BFB607B68002B11D00C4B1A68F9689E
:10B6D0007B68C046C046C046C046C046C046C0465D
:10B6E000C0468A4200D0C046013BF2D17B60C046D2
:10B6F000BD4604B080BDC0460024F40040200020B8
:10B7000080B582B000AF78600649A123DB007A687B
:10B71000CA5003211120FFF753FFC046BD4602B0B7
:10B7200080BDC0460010014080B500AF0E49D12356
:10B730009B0080225202CA500B49C1239B008022E9
:10B740005202CA501120FFF723FF1120FFF7DAFE43
:10B75000054B01221A602F20FFF7AEFF034B012299
:10B760001A70C046BD4680BD00100140582A002016
:10B7700080B500AF1120FFF7DBFE1049D2239B00FC
:10B7800080225202CA500D49C2239B0080225202DD
:10B79000CA500A4B01225A602F20FFF78DFF074B3A
:10B7A00001229A60064B00221A602F20FFF784FFC7
:10B7B000044B00221A70C046BD4680BD00100140F7
:10B7C000442A0020582A002080B500AF024A034BCB
:10B7D000D3581800BD4680BD00100140040500008C
:10B7E00080B582B000AF786039607A683B68D31A60
:10B7F0001B021B0A1800BD4602B080BD80B582B096
:10B8000000AF78600449A823DB007A68CA50C046BC
:10B81000BD4602B080BDC0460010014080B586B074
:10B8200000AF7860284B1B68002B03D1264B7A6849
:10B830001A6045E07B681A68234B1B681B689A42B4
:10B8400010D8214B1B6819687B681A681E4B1B684F
:10B850008A1A1A601C4B1A687B68DA611A4B7A687C
:10B860001A602DE07B681B68FB60174B1B687B61CF
:10B87000154B1B683B6109E03B691B68FA68D31AEA
:10B88000FB603B697B613B69DB693B613B69002B8A
:10B8900004D03B691B68FA689A42EDD83B69002BDB
:10B8A00005D03B691A68FB68D21A3B691A607B684D
:10B8B000FA681A607B683A69DA617B697A68DA61EA
:10B8C000C046BD4606B080BD402A002080B586B087
:10B8D00000AF7860224B1B687B617B693B6108E0AD
:10B8E0003A697B689A4208D03B697B613B69DB69B6
:10B8F0003B613B69002BF3D100E0C0463B69002B64
:10B9000029D07A693B699A4211D1154B1B68DA69D3
:10B91000134B1A60124B1B68002B08D1114B0122EC
:10B920009A60114B00221A60104B01221A703B6979
:10B930001B68FB603B69DA697B69DA617B69DB69FB
:10B940003B613B69002B07D03B691A68FB68D21842
:10B950003B691A6000E0C046BD4606B080BDC046E7
:10B96000402A002000100140442A0020592A0020CB
:10B9700080B500AF1120FFF7F3FDC046BD4680BD86
:10B9800080B500AF1420FFF7EBFDC046BD4680BD7B
:10B9900080B584B000AF7860104B1B68002B13D0CB
:10B9A0000E4B1A687B6858697B689B691900904741
:10B9B0000300FB60FB68BB60BB68002B0AD0BB6860
:10B9C0001800FFF7E1FB05E07B685A697B689B691B
:10B9D00018009047C046BD4604B080BD542A0020E0
:10B9E00080B584B000AF2C4B1B68002B50D00023D7
:10B9F0007B60FFF7E9FE0200284B1B68190010006E
:10BA0000FFF7EEFE0300BB60234B1B68FB601EE0EC
:10BA1000FB681B68BA689A421DD3FB681B68BA684A
:10BA2000D31ABB60FB681B687A68D3187B60FB681D
:10BA30003B60FB68DB69FB603B681B7C002B06D02E
:10BA40003B6800221A743B681800FFF7A1FFFB68EF
:10BA5000002BDDD100E0C046114B1A78114B1B784A
:10BA60009A420CD10F4B1B780133DAB20D4B1A708E
:10BA70000C4B1B78022B02D10A4B00221A70094B87
:10BA80001B781A00084B92007968D150FFF778FFB5
:10BA9000C046BD4604B080BD402A0020442A002094
:10BAA000502A0020512A0020482A002080B582B068
:10BAB00000AF7860184B1A78184B1B789A4223D045
:10BAC000154B1B780133DAB2134B1A70124B1B78EB
:10BAD000022B02D1104B00221A700F4B1B781A0058
:10BAE0000F4B9200D2587B681A607B681A680D4B26
:10BAF0001B68D2180B4B1A600A4B1B681B021A0AF0
:10BB0000084B1A60012303E07B6800221A600023BF
:10BB10001800BD4602B080BD502A0020512A0020E6
:10BB2000482A0020442A002080B584B000AF0F23AB
:10BB3000FB18274A12781A70264B1B68BB6035E049
:10BB4000234B59680F203B181A7813005B009B1891
:10BB5000DB00CB187B603B181A783B1801321A7057
:10BB60001B4B9B783A1812789A4202D13B1800225C
:10BB70001A707B681B78022B02D0032B10D014E0C4
:10BB80007B685B681800FFF7A1FE0FE0114B1B6894
:10BB90003B603B6800221A743B68DA690D4B1A60FF
:10BBA0000C4B1B68002BF1D100E0C046084B5B78C2
:10BBB0000F22BA1812789A42C2D1064B1B68BA6893
:10BBC000D31A5A1E9341DBB21800BD4604B080BDA3
:10BBD000382A0020402A002080B588B000AFF860E5
:10BBE000B9607A600023FB6138E0214B1B68BB61C0
:10BBF000BB691B68FA689A4206D2BB691A68FB687F
:10BC0000D21ABB691A602EE0BB691B68FA68D31AA6
:10BC1000FB60BB691B68FA69D318FB61BB69002232
:10BC20001A60134B1B687B61BB69DA69104B1A60A1
:10BC3000BB69DB68002B11D0BA68FB69D3181B0203
:10BC40001A0ABB695A60BB69DA68BB699A607B688B
:10BC50001A68BB69DA617B687A691A60044B1B68F1
:10BC6000002BC2D1C046C046BD4608B080BDC0460C
:10BC7000402A002080B586B000AF7860504B1B682A
:10BC80003B6187E07B68002B05D07B687B617B692B
:10BC9000DB697B603CE04B4B5A684A4B1B781900D0
:10BCA0000B005B005B18DB00D318FB60454B1B7877
:10BCB0000133DAB2434B1A70424B1A78414B9B78EE
:10BCC0009A4202D13F4B00221A70FB685B687B618D
:10BCD000FB681B78012B5DD17B691B7C002B00D09E
:10BCE00058E0FB689A687B695A60FB68DA687B6990
:10BCF0009A60FB681A697B69DA60FB685A697B693C
:10BD00009A61314B1B78002B02D07B6900225A606C
:10BD10007B695A682D4B1B68D31A1B021B0A2C4ADD
:10BD200093420ED87B695A68284B1B681900100093
:10BD3000FFF756FD02007B699B68D2187B691A6089
:10BD400018E0224B1A687B695B6819001000FFF746
:10BD500047FD0300BB607B699B68BA689A4206D2C4
:10BD60007B699A68BB68D21A7B691A6002E07B69BA
:10BD700000221A607B6900225A607B6900229A6067
:10BD80007B6901221A747B690022DA617B691800E1
:10BD9000FFF744FD7B68002B00D073E7094B1A784E
:10BDA000084B5B789A4200D06CE7054B1B683A69F8
:10BDB000D31A5A1E9341DBB21800BD4606B080BDAF
:10BDC000402A0020382A0020592A0020442A002036
:10BDD000FEFF7F0090B589B000AF78602B4B1B68E9
:10BDE000002B4DD0294B1B681B68FB61FFF7ECFC57
:10BDF0000300BB61264B1B687B617A69BB6911003C
:10BE00001800FFF7EDFC030003333B61214B1B7867
:10BE100001225340DBB2002B01D0FFF785FCFA6909
:10BE20003B69934200D213007A69D3187B617B6926
:10BE30001B021B0A7B617B691800FFF7DFFCFFF721
:10BE4000C3FC0300FB60BA69FB6811001800FFF730
:10BE5000C7FC0300DC1CBA697B6911001800FFF7FE
:10BE6000BFFC03009C420DD9FFF7AEFC0300180095
:10BE7000FFF7C4FC2F20FFF71FFCFFF779FD01E05F
:10BE8000FFF776FCC046BD4609B090BD402A0020B1
:10BE9000442A0020582A0020F0B587B000AF0023C4
:10BEA0007B601D4B1B683B611C4B1B68FB600B25BB
:10BEB0007C193B001800FFF7F9FD030023701726DB
:10BEC000BC19FFF731FE030023707B191B78002B90
:10BED00008D03B683A1D39691800FFF77DFEBB1991
:10BEE00001221A707B681800FFF7C4FE031E03D0FE
:10BEF0001723FB1801221A701723FB181B78002B3D
:10BF000003D0FB681800FFF765FF054B00221A708D
:10BF1000C046BD4607B0F0BD442A0020402A00209C
:10BF2000592A002080B582B000AF0200FB1D1A70B4
:10BF3000034BFA1D12785A70C046BD4602B080BD50
:10BF4000382A002080B584B000AF7860164B5A784C
:10BF50000F217B1801321A70134B9B787A181278D4
:10BF60009A4202D17B1800221A700F4B1B780F22C5
:10BF7000BA1812789A4201D1002310E07B680F2290
:10BF8000BA1812781A70084B5A68074B5B78190078
:10BF90000B005B005B18DB00D318BB60BB681800AC
:10BFA000BD4604B080BDC046382A002080B588B0A8
:10BFB00000AFF860B9607A603B600023FB61162136
:10BFC0007B1800221A707B18180000F037FA17232C
:10BFD000FB181800FFF7B6FF0300BB61BB69002B1D
:10BFE00002D10423FB6119E0BB6901221A70BB690D
:10BFF000FA685A60FFF7E8FB0200BB699A60BB6908
:10C00000BA68DA60BB697A681A61BB693A685A61D2
:10C010001723FB181B781800FFF784FF1623FB1863
:10C020001B78180000F016FAFB69002B01D1FFF70E
:10C03000A7FCFB691800BD4608B080BD80B586B07E
:10C0400000AF78600A00FB1C1A7000237B610E2190
:10C050007B1800221A707B18180000F0EFF90F23EC
:10C06000FB181800FFF76EFF03003B613B69002BD4
:10C0700002D104237B610CE03B69FA1C12781A7030
:10C080003B697A685A600F23FB181B781800FFF78A
:10C0900049FF0E23FB181B78180000F0DBF97B69C1
:10C0A000002B01D1FFF76CFC7B691800BD4606B080
:10C0B00080BD000080B500AF114AA0235B000021C5
:10C0C000D1500F4AA2235B000021D1500C4AA42377
:10C0D0005B000021D1500A4AA6235B000021D15009
:10C0E000074A80235B000021D150054A82235B0070
:10C0F0000021D150FFF774FCC046BD4680BDC0464C
:10C100000010014080B500AFFFF7C6FEC046BD4637
:10C1100080BD000080B584B000AFF8607A603B60FD
:10C120000B23FB180A1C1A707B681800FFF7B6FA7D
:10C1300003001A0001235340DBB2002B01D0072378
:10C1400034E07B68002B01D107232FE0FFF710FBC1
:10C15000184B3A681A60184B00221A70164B0022CE
:10C160005A70154B0B22BA1812789A70124B7A68D3
:10C170005A60124B00221A60114B00221A70114BA8
:10C1800000221A701420FFF703FA03211420FFF78E
:10C1900017FA1420FFF7B6F9FB681800FFF7B0FA9A
:10C1A000FFF712FB0200084B1A6000231800BD467F
:10C1B00004B080BD542A0020382A0020402A0020E4
:10C1C000502A0020512A0020442A002080B586B041
:10C1D00000AFF8607A600B23FB180A1C1A70154B2D
:10C1E0005B68002B01D108231FE07B68002B01D185
:10C1F00007231AE0FB68002B01D1072315E0FB6839
:10C200001B681B7C002B01D008230EE0FB681B6819
:10C210007B617B6900221A747B690B22BA18127841
:10C220005A747B697A685A6100231800BD4606B0CB
:10C2300080BDC046382A002080B586B000AFF860C7
:10C24000B9607A60FB687B61144B5B68002B01D19D
:10C2500008231EE0FB68002B01D1082319E0BB680E
:10C26000042B01D8072314E07B695B69002B01D103
:10C2700008230EE07B695B7C012B01D1BB6800E0E9
:10C2800000233B617B683A69B9687869FFF78EFEE5
:10C2900003001800BD4606B080BDC046382A002005
:10C2A00080B584B000AF78607B68FB600D4B5B6845
:10C2B000002B01D1082311E07B68002B03D0FB6821
:10C2C0005B69002B01D1082308E0FB6800221A7487
:10C2D000FB6802211800FFF7B1FE03001800BD46FD
:10C2E00004B080BD382A002080B584B000AF7860EB
:10C2F0000A00BB1C1A807B68FB60BB1C1B88083BC8
:10C300005A425341DBB2BB60BB68002B02D1002014
:10C31000FEF73AFFFB681A68FB685B6818009047F5
:10C32000C046BD4604B080BD80B584B000AF786023
:10C33000396008217B187A681A607B183A685A605D
:10C34000054A7B1808211800FFF704F803001800BD
:10C35000BD4604B080BDC046E9C2010080B582B0D0
:10C3600000AFEFF310833B603B687B6072B6C04662
:10C370007B681800BD4602B080BD80B500AF62B6D4
:10C38000C046C046BD4680BD80B584B000AF786071
:10C39000FFF7E4FF0300FB60114B5B68002B11D13A
:10C3A0000F4B01225A600F4A8023D3580E4A1A407D
:10C3B0000B4B1A600B4A80230B49D1507B6800223B
:10C3C0001A7002E07B6801221A70FB68002B01D111
:10C3D000FFF7D3FF00231800BD4604B080BDC04660
:10C3E0008838002000E100E0FC06FFBC80B584B086
:10C3F00000AF0200FB1D1A700E4B5B68002B13D0C0
:10C40000FB1D1B78002B0FD1FFF7A8FF0300FB607B
:10C41000094A084B1B681360064B00225A60FB68F0
:10C42000002B01D1FFF7A9FF00231800BD4604B07F
:10C4300080BDC0468838002000E100E080B582B0B1
:10C4400000AF78607B681800FFF79EFFC046BD46CE
:10C4500002B080BD80B582B000AF0200FB1D1A7033
:10C46000FB1D1B781800FFF7C1FFC046BD4602B098
:10C4700080BD71DF7047C046180072DF7047C0464C
:10C48000180079DF7047C04618007DDF7047C0464E
:10C49000180065DF7047C046180080B582B000AF55
:10C4A00002003960BB1D1A80BB1D1B88DAB23B68D5
:10C4B0001A70BB1D1B881B0A9AB23B680133D2B2AB
:10C4C0001A7002231800BD4602B080BD90B589B035
:10C4D00000AFF860B960BB1D1A80BB681B880933C8
:10C4E0001A00BB1D1B889A4201D90C2351E014236A
:10C4F000FB181800FFF7BDFF0300FB61FB69002B71
:10C5000001D0FB6945E0BB681B881A00FB689B18DB
:10C5100008221A70BB681B8801339AB2BB681A8064
:10C52000BB681B881A00FB689B181B221A70BB682B
:10C530001B8801339AB2BB681A80BB681B881A003B
:10C54000FB68981814243B1901330622190011F0D6
:10C550003DFBBB681B8806339AB2BB681A803B1947
:10C560001B78002B07D1BB681B881A00FB689B183F
:10C5700000221A7006E0BB681B881A00FB689B1833
:10C5800001221A70BB681B8801339AB2BB681A80FB
:10C5900000231800BD4609B090BD80B588B000AF3B
:10C5A000F860B9607A601A00BB1C1A80FB681B78BF
:10C5B000012B05D1FB685B78002B01D1072396E0A6
:10C5C0007B681B889A1CBB1C1B889A420ED8FB6890
:10C5D0001B78012B0CD17B681B881A00FB685B78E9
:10C5E000D3189A1CBB1C1B889A4201D90C237EE0ED
:10C5F0007B681B88BA1C1288D31A9AB21C217B183C
:10C60000023A1A8016203B187A1812881A807B6822
:10C610001B880233BA68D3183A1811001800FFF7C4
:10C6200034FF0300BB61BB69002B01D0BB695EE036
:10C63000FB681B78022B0CD11623FB181B881C22CD
:10C64000BA1812889A4204D31F23FB1809221A70C1
:10C650001CE01F23FB1808221A70FB681B78012BB3
:10C660000ED1FB685B789BB21C22BA1812889A42E2
:10C6700006D3FB685B789AB21623FB181A8005E094
:10C680001623FB181C22BA1812881A801623FB18CE
:10C690001B88FE2B01D90C2329E016203B181B8890
:10C6A000DAB27B681B881900BB685B180132D2B212
:10C6B0001A707B681B8801339AB27B681A807B688A
:10C6C0001B881A00BB689B181F22BA1812781A70B0
:10C6D0007B681B8801339AB27B681A807B681A8852
:10C6E0003B181B88D3189AB27B681A800023180065
:10C6F000BD4608B080BD80B586B000AFF860B960B7
:10C70000BB1D1A80BB681B881A1DBB1D1B889A4263
:10C7100001D90C233BE01223FB181800FFF7B1FEF0
:10C7200003007B617B69002B01D07B692FE0BB6834
:10C730001B881A00FB689B1803221A70BB681B88B1
:10C7400001339AB2BB681A80BB681B881A00FB6869
:10C750009B1819221A70BB681B8801339AB2BB68F8
:10C760001A801223FB181A88BB681B881900FB6803
:10C770005B1819001000FFF790FE03001900BB685A
:10C780001A888BB2D3189AB2BB681A80002318009B
:10C79000BD4606B080BD80B584B000AFB9607A6098
:10C7A00019000F23FB18021C1A700C203B180A1CDE
:10C7B0001A807B681B88DA1C3B181B889A4201D9B7
:10C7C0000C2329E07B681B881A00BB689B18022297
:10C7D0001A707B681B8801339AB27B681A807B6869
:10C7E0001B881A00BB689B1801221A707B681B8883
:10C7F00001339AB27B681A807B681B881A00BB6879
:10C800009B180F22BA1812781A707B681B880133A4
:10C810009AB27B681A8000231800BD4604B080BD20
:10C8200080B584B000AFB9607A6019000F23FB189F
:10C83000021C1A700C203B180A1C1A807B681B888B
:10C84000DA1C3B181B889A4201D90C2329E07B682B
:10C850001B881A00BB689B1802221A707B681B8811
:10C8600001339AB27B681A807B681B881A00BB6808
:10C870009B180A221A707B681B8801339AB27B6866
:10C880001A807B681B881A00BB689B180F22BA1895
:10C8900012781A707B681B8801339AB27B681A8001
:10C8A00000231800BD4604B080BD90B58BB000AF2A
:10C8B000F860080011007B600B23FB18021C1A7043
:10C8C0000A23FB180A1C1A702323FB1800221A7073
:10C8D0002023FB18BA6B12881A8000237B6281E048
:10C8E000FB685A687B6A9B00D31810243A19100021
:10C8F000190004231A0011F069F91623F9183B19DD
:10C9000000221800FFF7C5FD0300BB61BB69002BC7
:10C9100001D0BB698EE01623FB181B780A22BA18D7
:10C9200012789A425BD12323FB181B78002B01D08D
:10C93000002200E0022217217B181A70BB6B1B88B3
:10C940001A001623FB181B78D2187B181B78D218F4
:10C95000342308218C46BC4463441B889A4201DD81
:10C960000C2367E023217B181B7801225340DBB2A4
:10C97000002B17D0BB6B1B8801339AB2BB6B1A809C
:10C98000BB6B1B881A007B689B180B22BA181278A5
:10C990001A70BB6B1B8801339AB2BB6B1A807B1871
:10C9A00001221A70BB6B1B881A007B689A18162329
:10C9B000F9181023FB181800FFF76BFD0300BB618B
:10C9C000BB69002B01D0BB6934E0BB6B1A8816230E
:10C9D000FB181B789BB2D3189AB2BB6B1A807B6A88
:10C9E00001337B62FB681B881A007B6A934200DA82
:10C9F00076E72323FB181B78002B1AD0BB6B1A8811
:10CA00002023FB181B88D31A9AB21E217B18013AE7
:10CA10001A807B181B88FF2B01D90C230AE02023E6
:10CA2000FB181B887A68D3181E22BA181288D2B253
:10CA30001A7000231800BD460BB090BD90B589B0A8
:10CA400002AFF860080011007B600B243B19021C48
:10CA50001A700A23FB180A1C1A707A683B19197895
:10CA6000F86824230824A446BC4463441B8801932B
:10CA7000BB6A009313000222FFF717FF03007B61DC
:10CA80007B69002B01D07B6919E07A680A23FB18C7
:10CA90001978F86824230824A446BC4463441B88FE
:10CAA0000193BB6A009313001022FFF7FEFE030000
:10CAB0007B617B69002B01D07B6900E000231800BB
:10CAC000BD4607B090BD000080B582B000AF786071
:10CAD0007B681B88052B0AD97B681A88C8231B0131
:10CAE0009A4206D97B681B88164A934201D00723D5
:10CAF00023E07B685B88052B0AD97B685A88C823AA
:10CB00001B019A4206D97B685B880E4A934201D08A
:10CB1000072312E07B681B880A4A93420CD07B688B
:10CB20005B88084A934207D07B681A887B685B88D9
:10CB30009A4201D9072300E000231800BD4602B045
:10CB400080BDC046FFFF000080B586B000AFF86032
:10CB5000B9607A601A00BB1C1A807B681B889A1D1A
:10CB6000BB1C1B889A4201D90C234DE0FB681800BE
:10CB7000FFF7AAFF03007B617B69002B01D07B6973
:10CB800042E07B681B881A00BB689B1805221A705C
:10CB90007B681B8801339AB27B681A807B681B888C
:10CBA0001A00BB689B1812221A707B681B8801331D
:10CBB0009AB27B681A80FB681A887B681B88190008
:10CBC000BB685B1819001000FFF767FC0300190031
:10CBD0007B681A888BB2D3189AB27B681A80FB687C
:10CBE0005A887B681B881900BB685B181900100005
:10CBF000FFF753FC030019007B681A888BB2D31827
:10CC00009AB27B681A8000231800BD4606B080BD2A
:10CC100080B586B000AFF860B9607A601A00BB1CBE
:10CC20001A80FB689B8802337B617B681B881A0033
:10CC30007B69D3189A1CBB1C1B889A4201D90C2310
:10CC400054E07B69FE2B01D90C234FE07B69DAB2FB
:10CC50007B681B881900BB685B180132D2B21A705E
:10CC60007B681B8801339AB27B681A807B681B88BB
:10CC70001A00BB689B18FF221A707B681B8801335F
:10CC80009AB27B681A80FB681A887B681B88190037
:10CC9000BB685B1819001000FFF7FFFB03001900C9
:10CCA0007B681A888BB2D3189AB27B681A80FB68AB
:10CCB0009B88002B19D0FB689B68002B01D10723B0
:10CCC00014E07B681B881A00BB689818FB68996899
:10CCD000FB689B881A0010F079FF7B681A88FB6854
:10CCE0009B88D3189AB27B681A8000231800BD462F
:10CCF00006B080BD80B588B000AFF860B9607A60DA
:10CD00001A00BB1C1A80FB689B6A002B01D1072309
:10CD100076E01F23FB1800221A7068E0FB68996A0E
:10CD20001F23FB181A7813005B009B189B00CB187D
:10CD3000BB61BB699B8802337B617B69FE2B01D998
:10CD40000C235DE07B69DAB27B681B881900BB6845
:10CD50005B180132D2B21A707B681B8801339AB219
:10CD60007B681A807B681B881A00BB689B18162298
:10CD70001A707B681B8801339AB27B681A80BB6982
:10CD80001A887B681B881900BB685B1819001000A3
:10CD9000FFF783FB030019007B681A888BB2D31856
:10CDA0009AB27B681A80BB699B88002B19D0BB693B
:10CDB0009B68002B01D1072322E07B681B881A00A7
:10CDC000BB689818BB699968BB699B881A0010F00A
:10CDD000FDFE7B681A88BB699B88D3189AB27B6872
:10CDE0001A801F217B181A787B1801321A70FB6891
:10CDF0002C229B5C1F22BA1812789A428ED30023F1
:10CE00001800BD4608B080BD80B588B002AFF8609C
:10CE1000B9607A6000237B6112217B187A681288DE
:10CE20001A807B6800221A80FB682D229B5C002BF5
:10CE30000DD07B181A887968BB681800FFF746FB8D
:10CE400003007B617B69002B01D07B69DBE0FB6821
:10CE50009B78002B0ED01223FB181A887968BB68C8
:10CE60001800FFF748FC03007B617B69002B01D0B1
:10CE70007B69C8E0FB68DB78002B10D0FB68DB78AF
:10CE800058B21223FB181B887A68B968FFF783FC35
:10CE900003007B617B69002B01D07B69B3E0FB68F9
:10CEA0005B68002B11D0FB685B68002018561223CA
:10CEB000FB181B887A68B968FFF7B2FC03007B6136
:10CEC0007B69002B01D07B699DE0FB681B89002BEF
:10CED00015D0FB6808331800BA681223FB181B88AA
:10CEE00001937B680093130006220221FFF7A6FD41
:10CEF00003007B617B69002B01D07B6983E0FB68C9
:10CF00001B8A002B15D0FB6810331800BA68122357
:10CF1000FB181B8801937B680093130007220321F1
:10CF2000FFF78CFD03007B617B69002B01D07B69DF
:10CF300069E0FB681B8B002B15D0FB6818331800C9
:10CF4000BA681223FB181B8801937B6800931300B7
:10CF500015221421FFF772FD03007B617B69002B12
:10CF600001D07B694FE0FB681B6A002B0FD0FB6888
:10CF7000186A1223FB181B887A68B968FFF7E4FD6A
:10CF800003007B617B69002B01D07B693BE0FB6880
:10CF90005B6A002B0FD0FB68586A1223FB181B88B2
:10CFA0007A68B968FFF734FE03007B617B69002B68
:10CFB00001D07B6927E0FB682C229B5C002B0ED004
:10CFC0001223FB181B887A68B968F868FFF792FE8D
:10CFD00003007B617B69002B01D07B6913E0FB6858
:10CFE0001B78002B0ED01223FB181B887A68B968B7
:10CFF000F868FFF7D2FA03007B617B69002B01D050
:10D000007B6900E07B691800BD4606B080BD80B535
:10D0100082B000AF78607B68DB781A00042313408D
:10D0200001D1072300E000231800BD4602B080BDF7
:10D0300080B582B000AF78607B68DB78002B01D0D0
:10D04000072300E000231800BD4602B080BD80B574
:10D0500096B000AF786039604A23FB181F221A800F
:10D060004823FB181F221A807B68002B1DD07B6889
:10D070001800FFF7CCFF0300FB64FB6C002B01D012
:10D08000FB6C4CE04A23FA182823F9187B68180037
:10D09000FFF7BAFE0300FB64FB6C002B01D0FB6CB6
:10D0A0003DE02823FB187B6505E000237B654A23D0
:10D0B000FB1800221A803B68002B1DD03B6818002B
:10D0C000FFF7B6FF0300FB64FB6C002B01D0FB6C89
:10D0D00025E04823FA180823F9183B681800FFF7E1
:10D0E00093FE0300FB64FB6C002B01D0FB6C16E08D
:10D0F0000823FB183B6505E000233B654823FB182C
:10D1000000221A804A23FB181B88D9B24823FB1837
:10D110001B88DBB23A6D786DFFF7AFF9030018009A
:10D12000BD4616B080BD73DF7047C04618000000D2
:10D1300080B500AF084B1B79002B03D1064B1B7B3E
:10D14000002B01D0012300E000231A1C012313400F
:10D15000DBB21800BD4680BDE81F002080B584B05A
:10D1600000AF78600023FB600AE07A68FB68D318A0
:10D170001B78002B01D0012306E0FB680133FB6024
:10D18000FB68052BF1D900231800BD4604B080BD13
:10D1900080B582B000AF0200FB1D1A70FB1D1B782A
:10D1A00001330521180010F0B5FC0B00DBB21800AC
:10D1B000BD4602B080BD000080B582B000AF78608F
:10D1C0007B689B7D012B03D17B689A88024B1A8078
:10D1D000C046BD4602B080BD202B002080B584B083
:10D1E00000AF78600E4B00221A707B689A880D4B56
:10D1F0001B889A4210D1012000F090FA0300FB60D6
:10D20000FB68002B08D0084B1B68002B04D0064B92
:10D210001B68FA6810009847C046BD4604B080BD40
:10D220002C2B0020202B0020282B002080B584B040
:10D2300000AF78607B681B7A002B17D10D4B1B78F1
:10D240001800FFF7A5FF0300180000F067FA0300BD
:10D25000FB60FB68002B0AD0074B1B68002B06D035
:10D26000054B1B68FA681000984700E0C046BD46B1
:10D2700004B080BD5D2A0020282B002080B582B03C
:10D2800000AF3B1D180005F053FC7B685A1E93410C
:10D29000DBB21800BD4602B080BD000090B585B07D
:10D2A00000AF0200FB1D1A700F23FC181C4B180066
:10D2B000FFF754FF03002370FB1D1B78042B24D0C1
:10D2C00029DC032B1BD026DC012B02D0022B0BD038
:10D2D00021E0144B5B78002B06D00F23FB181B7842
:10D2E000002B01D0012317E00E4B9B78002B06D0BA
:10D2F0000F23FB181B78002B01D002230CE0094BF5
:10D30000DB78002B01D0032306E0064B1B79002BB2
:10D3100001D0042300E000231800BD4605B090BDF5
:10D32000812A0020602A002080B582B000AF78609A
:10D33000094B01221A707B68084A5A607B680122F7
:10D340001A707B6800225A827B6800221A820023AE
:10D350001800BD4602B080BD5C2A0020802A002053
:10D3600080B582B000AF78600B4B02221A707B68E8
:10D370000A4A5A607B6801221A70094BDB689AB22C
:10D380007B685A82064B9B689AB27B681A8200239C
:10D390001800BD4602B080BD5C2A0020802A002013
:10D3A000602A002080B584B000AF78601C4B1B69F8
:10D3B0009AB27B681A821A4B5B699AB27B685A826E
:10D3C000174B1B78002B23D0164B1B7801225340A0
:10D3D000DBB2002B1CD0FFF7ABFE031E18D07B681E
:10D3E000114ADA607B6802221A72104B0422DA704A
:10D3F0000E4B00211800FFF72AFE0300FB60FB68BC
:10D40000002B01D0FB6807E0094B05221A7002E0EF
:10D41000074B03221A7000231800BD4604B080BDDC
:10D42000602A00202C2B0020E81F0020882A0020E2
:10D430005C2A002080B584B000AF78601C4B9B69EB
:10D440009AB27B681A821A4BDB699AB27B685A825D
:10D45000174B1B78002B23D0164B1B78012253400F
:10D46000DBB2002B1CD0FFF763FE031E18D07B68D5
:10D47000114ADA607B6802221A72104B0422DA70B9
:10D480000E4B00211800FFF7E2FD0300FB60FB6874
:10D49000002B01D0FB6807E0094B06221A7002E05E
:10D4A000074B04221A7000231800BD4604B080BD4B
:10D4B000602A00202C2B0020E81F0020882A002052
:10D4C0005C2A002090B58BB000AFF860B9607A603C
:10D4D0003B60FB68002B02D07B68002B01D10E2340
:10D4E000F7E07E4B01221A707D4B00221A707D4BB3
:10D4F0007A6813CA13C313CA13C303CA03C37A4B8C
:10D500003A681A60794BBA6B1A60794B0122524221
:10D510001A80784B07220021180010F0A9FB764BE7
:10D520003C220021180010F0A3FBFB681A78724B14
:10D530001A70FB689A78704B9A70FB68DA786E4BB9
:10D54000DA70FB685A786C4B5A706B4BFA68103380
:10D55000103203CA03C3684BFA680833083203CA9F
:10D5600003C3654BFA681833183203CA03C3FB6858
:10D570005B6A002B29D0604B604A5A625F4B604A5D
:10D580009A60FB685A6A5C4B5B6A12881A80FB6877
:10D590005A6A594B5B6A92889A8000237B620DE03D
:10D5A000FB685B6A9A687B6AD3181978544A7B6A6D
:10D5B000D3180A1C1A707B6A01337B624E4B5B6A7C
:10D5C0009B881A007B6A9342EAD3FB689B6A002B14
:10D5D00033D04C4B4C4A9A60474B4A4A9A62464B6E
:10D5E0009B6A494A9A60FB689A6A434B9B6A928895
:10D5F0009A80FB689A6A404B9B6A12881A800023C3
:10D600003B620DE0FB689B6A9A683B6AD318197805
:10D610003D4A3B6AD3180A1C1A703B6A01333B62CD
:10D62000354B9B6A9B881A003B6A9342EAD3FB689E
:10D630002C22995C304B2C229954FB681B6A002BDE
:10D640000ED02D4B314A1A62FB681A6A2A4B1B6AAC
:10D6500052885A80FB681A6A274B1B6A12881A8004
:10D66000FB685B68002B03D0FB685A68224B5A604A
:10D670000023FB610EE0264B1A68FB699B00D21861
:10D68000F9690B00DB005B1A22495B181360FB6928
:10D690000133FB61FB69072BEDDD0023BB610CE06F
:10D6A0001B4B9A68BB699B00D318BA6911011A4ACF
:10D6B0008A181A60BB690133BB61BB69072BEFDDB8
:10D6C000BA680D4B11001800FFF7C1FC03007B6125
:10D6D0007B691800BD460BB090BDC0465A2A002099
:10D6E0005D2A0020602A0020242B0020282B002007
:10D6F000202B0020802A0020882A0020C42A002015
:10D70000D02A0020F02A0020FC2A00201C2B002018
:10D71000E81F0020702B0020A82B002090B58BB0B4
:10D7200000AF0200FB1D1A70644B1B7801225340AE
:10D73000DBB2002B01D00823BBE0614BFA1D12784D
:10D740001A70FFF79BFD031E04D05E4B01221A7076
:10D750000023AEE05C4B07220021180010F088FA8D
:10D760005A4B5B78002B03D0554B1B78012B0FD005
:10D77000564B9B78002B03D0514B1B78012B07D0C5
:10D78000524B9B78002B12D04D4B1B78022B0ED1A5
:10D790004F4B1B68002B07D04E4B01221A704C4B8D
:10D7A0001B680820984702E04A4B00221A70FB1DB4
:10D7B0001B781800FFF772FD03001A00404B1A7027
:10D7C000434B1B68002B1AD03D4B1B78032B03D017
:10D7D0003B4B1B78042B12D13C4B1B78002B0ED0FB
:10D7E0003D4B1B7801225340DBB2002B07D03B4B53
:10D7F00001221A70364B1B680720984702E0374B0E
:10D8000000221A700C243B1918220021180010F075
:10D810002FFA21007B1800221A707B1800221A723E
:10D82000274B1B78042B28D89A002D4BD3181B6844
:10D830009F460C23FB181800FFF776FD03007B6260
:10D840001CE00C23FB181800FFF78AFD03007B6225
:10D8500014E00C23FB181800FFF7A4FD03007B6203
:10D860000CE00C23FB181800FFF7E4FD03007B62BB
:10D8700004E01C4B00221A7000E0C046104B1B78DD
:10D88000002B0BD00C23FB181800FFF74CFC0300F7
:10D890007B627B6A002B01D07B6A0AE00C4B1B6821
:10D8A000002B05D00A4B1B680E4A127810009847CF
:10D8B00000231800BD460BB090BDC0465A2A002078
:10D8C0005D2A00205B2A0020802A0020602A002098
:10D8D000242B0020872A00202C2B00202D2B002019
:10D8E000546F03005C2A002080B582B000AF7860DE
:10D8F0007B681B881B2B0FD013DC102B02D0112B45
:10D9000005D00EE07B681800FFF756FC0AE07B6844
:10D910001800FFF763FC05E07B681800FFF786FC42
:10D9200000E0C046C046BD4602B080BD80B584B0B0
:10D9300000AF78607B68023B012B1AD8104B1B7834
:10D94000002B18D00E4B00221A700E4B1B781800BB
:10D95000FFF7E4FE0300FB60FB68002B0BD00A4BD3
:10D960001B68002B07D0084B1B68FA68100098470B
:10D9700001E0C04600E0C046C046BD4604B080BDE0
:10D980005B2A00205D2A0020282B002080B582B071
:10D9900000AF78600C4B1B7801225340DBB2002BA8
:10D9A00001D008230BE0084B00221A70074A7B685D
:10D9B0001000190007231A0010F008F900231800BE
:10D9C000BD4602B080BDC046872A0020802A0020C4
:10D9D00080B586B000AFF860B9607A603B60264BD6
:10D9E0001B7801225340DBB2002B01D008233FE01B
:10D9F000214B00221A70BB68DAB2204B1A713B68C7
:10DA0000DAB21E4B1A7300237B6113E07A691300AC
:10DA1000DB009B1AFA68D118184B1A687B699B00C7
:10DA2000D3181B68180007231A0010F0CFF87B6981
:10DA300001337B617A69BB689A42E7D300233B617B
:10DA400011E03B691B017A68D1180C4B9A683B695D
:10DA50009B00D3181B68180010231A0010F0B6F8AA
:10DA60003B6901333B613A693B689A42E9D3002341
:10DA70001800BD4606B080BD2D2B0020E81F0020F9
:10DA8000A0DF7047C0461800A2DF7047C0461800EC
:10DA9000A3DF7047C0461800A4DF7047C0461800D7
:10DAA000A6DF7047C046180080B582B000AF78602E
:10DAB00039603B689A887B685A82C046BD4602B08E
:10DAC00080BD80B582B000AF786039607B6801228C
:10DAD00052425A82C046BD4602B080BD80B584B075
:10DAE00000AF786039607B681B7D002B27D03B68D6
:10DAF0000633FB60FB681A887B685B899A421ED1FB
:10DB0000FB685B89022B1AD17B681B68002B16D03F
:10DB1000FB680C33180002F036FD031E04D0082306
:10DB2000FB1800221A7003E00823FB1801221A7068
:10DB30007B681B680822B9187A6810009847C046AD
:10DB4000BD4604B080BD80B582B000AF786039605A
:10DB50003B681B88502B13D019DC102B02D0112BE3
:10DB600007D014E03A687B6811001800FFF79CFFAB
:10DB70000EE03A687B6811001800FFF7A2FF07E08B
:10DB80003A687B6811001800FFF7A8FF00E0C04664
:10DB9000C046BD4602B080BDF0B595B000AF78601C
:10DBA00039607B681B7D002B23D028243B1903227E
:10DBB0000021180010F05CF820003B181A780F21A3
:10DBC0008A43111C01220A431A703B181A780F214C
:10DBD0000A40111C10220A431A703B183A68527B03
:10DBE0005A703B189A7806218A43111C02220A4374
:10DBF0009A702C243B191C220021180010F038F8D0
:10DC00003B191A7802210A431A707B681A7D3B1966
:10DC100001210A4010011A7810218A43111C021CAC
:10DC20000A431A703B1900225A603B190022DA603D
:10DC30003B1900221A617B681B7D002B02D0282330
:10DC4000FA1800E000222C26BB195A61BB190022E9
:10DC50009A6110217B1801229A707B18684A1A80F9
:10DC60000C243B1903220021180010F001F83B1985
:10DC70003A68927B1A703B193A68D27B5A703B190A
:10DC80009A7806218A43111C02220A439A703B1992
:10DC90009A7808218A439A703B199A7810218A430E
:10DCA0009A703B199A7801218A439A703B681A7BD3
:10DCB0000B23FB181A7014257B191422002118005D
:10DCC0000FF0D6FF29007B181022BA181A607B18B3
:10DCD0003A195A607B1801221A817B1800225A8156
:10DCE0007B1801229A817B180B22BA181A617B6873
:10DCF00098887B6806337A18B919FFF7C5FE0300C8
:10DD0000FB64FB6C002B01D0FB6C75E03B689B68EF
:10DD1000002B6DD01026BB1901229A70BB19394A0D
:10DD20001A800C257B190322002118000FF0A0FF98
:10DD30007B193A68127C1A707B195A780F218A4332
:10DD40005A707B195A780F210A405A707B199A78B9
:10DD500006218A43111C02220A439A707B199A7881
:10DD600008218A439A707B199A7810218A439A7005
:10DD70007B199A7801218A439A703B689A684B23F1
:10DD8000FC1808217B181100180002F013FC030096
:10DD9000237014243B191422002118000FF068FF8F
:10DDA00021007B18BA191A607B187A195A604B2324
:10DDB000FB181B789AB27B181A817B1800225A81B3
:10DDC0007B181A897B189A817B180822BA181A6165
:10DDD0007B68D8887B680E331A007B181900FFF720
:10DDE00057FE0300FB64FB6C002B04D0FB6C03E0CC
:10DDF0007B680022DA8100231800BD4615B0F0BD13
:10DE0000192A00000829000080B584B000AF7860AE
:10DE100039603B681A687B681A607B68012252424D
:10DE20005A823B681A797B681A757B68FF221A74DC
:10DE300008217B1801229A707B180D4A1A807B6892
:10DE40001A1D7B1819000120FFF71AFE0300FB6062
:10DE5000FB68002B01D0FB6806E03A687B68110084
:10DE60001800FFF799FE03001800BD4604B080BDFE
:10DE70000F18000090B58BB000AF78600A00FB1C53
:10DE80001A7000237B627B681A7CFB1C1B789A4209
:10DE900053D01C243B190822002118000FF0E8FE83
:10DEA00021007B1801221A807B1800225A807B18DF
:10DEB000FA1C5A60FB1C1A787B681A747B68588AB3
:10DEC0007B68DB887A181900FFF7E6FD03007B62A8
:10DED0007B6A002B01D07B6A30E07B685B8A194A41
:10DEE000934228D07B681B7D002B24D00C243B1947
:10DEF0001022002118000FF0BBFE7B68DA88210099
:10DF00007B181A807B1801229A701C203B185A88B3
:10DF10007B189A807B183A189A603B185A687B18CD
:10DF2000DA607B685B8A7A1811001800FFF7B8FD89
:10DF300003007B6201E008237B627B6A1800BD4618
:10DF40000BB090BDFFFF000075DF7047C0461800A2
:10DF500076DF7047C04618007ADF7047C046180069
:10DF60007BDF7047C046180080B582B000AF786094
:10DF70007B685A88084B1B889A4207D37B685A886B
:10DF8000054B5B889A4201D8012300E0002318006A
:10DF9000BD4602B080BDC046442C002080B586B08E
:10DFA00000AF7860294B1B88294A934249D0294BFE
:10DFB0001B780133DAB2274B1A70274B1A7B254B9B
:10DFC0001B789A4215D3214B1B88244A1100180054
:10DFD000FFF7BAFF03003B613B69002B31D01E4BBA
:10DFE0009B69002B2DD01C4B9B693A691000984708
:10DFF00027E0184B00221A70174B1B7C002B13D004
:10E00000124B1B883B211800FFF7A2FF03007B6126
:10E010007B69002B08D0104B9B69002B04D00E4B62
:10E020009B697A69100098470B4B5B69002B08D0FD
:10E030000C217B1800221A70074B5B697A181000BC
:10E040009847C046BD4606B080BDC0464E2C002055
:10E05000FFFF00004C2C0020282C0020442C002026
:10E0600090B585B000AF78601F4B7A6813CA13C3B0
:10E0700013CA13C312681A601C4B00221A707B6803
:10E080001B68002B13D07B681B68194A100019000D
:10E0900008231A000FF09AFD154B1800FFF75CFFDC
:10E0A0000300FB60FB68002B0CD0FB6818E0104BF2
:10E0B0001800FFF755FF0300FB60FB68002B01D041
:10E0C000FB680DE00B4B012252421A800A4B0022E2
:10E0D0001A700A4A0A4B00211800FEF777F803006D
:10E0E0001800BD4605B090BD282C0020782C0020DB
:10E0F000442C00204E2C00204C2C00209DDF0100E1
:10E10000686F030080B584B000AF274B1800FFF79D
:10E110002BFF03001A0001235340DBB2002B30D049
:10E12000224B1B78002B0CD0214B5B69002B34D089
:10E130003B1D00221A701E4B5B693A1D1000984768
:10E140002BE01C4B1B78002B03D1194B5B68FB6049
:10E1500002E0174B9B68FB60174BF9680022180020
:10E16000FEF76AF80300BB60BB68002B15D0104BAC
:10E170009B69002B11D00E4B9B69BA681000984721
:10E180000BE00B4B5B69002B07D03B0001221A70A0
:10E19000074B5B693A0010009847044B00221A7045
:10E1A000C046BD4604B080BD502C0020782C002015
:10E1B000282C00204C2C0020582C002080B582B048
:10E1C00000AF78607B689A88094B1A80094A7B689F
:10E1D000183303CB03C2084B00221A70074BDB89AC
:10E1E000002B01D1FFF78EFFC046BD4602B080BDB7
:10E1F0004E2C0020502C00204C2C0020282C0020DD
:10E2000080B584B000AF78600E4B012252421A8074
:10E210000D4B00221A700D4B1800FEF741F8030059
:10E22000FB60FB68002B08D0094B9B69002B04D0D6
:10E23000074B9B69FA6810009847C046BD4604B07A
:10E2400080BDC0464E2C00204C2C0020582C0020B5
:10E25000282C002080B584B000AF78607B6806333E
:10E26000FB60FB681A88144BDB899A421FD1FB685C
:10E270005B89022B1BD1FB680C33180002F083F979
:10E28000031E02D0FFF73EFF11E00C4B1800FEF713
:10E2900007F80300BB60BB68002B08D0064B9B69E6
:10E2A000002B04D0044B9B69BA6810009847C04605
:10E2B000BD4604B080BDC046282C0020582C00204C
:10E2C00080B582B000AF7860054A7B68083303CB25
:10E2D00003C2FFF717FFC046BD4602B080BDC0466F
:10E2E000502C002080B582B000AF78607B681B881E
:10E2F000502B12D01BDC122B14D018DC102B02D0A8
:10E30000112B05D013E07B681800FFF757FF0FE0D3
:10E310007B681800FFF774FF0AE07B681800FFF7BE
:10E3200099FF05E07B681800FFF7CAFF00E0C046D0
:10E33000C046BD4602B080BDB0B584B000AF02009B
:10E34000BB1D1A80164B1B7DDB43DBB20E257C19EF
:10E3500018000DF099F8030023807B191B88114ADF
:10E36000934218D07B191B880D4A5B00D3180433E5
:10E37000BA1D12881A80BB1D1A880B490B4801234D
:10E380000DF0AEF8BB1D1A880949084801230DF0AD
:10E39000A7F8012300E000231800BD4604B0B0BD7B
:10E3A0007C2C0020FFFF0000912C0020802C0020FE
:10E3B000902C002080B584B002AF0200BB1D1A80F3
:10E3C000BB1D1B8805490648002200921D220DF046
:10E3D000A1F8C046BD4602B080BDC046902C0020CA
:10E3E000802C002080B582B000AF0200BB1D1A80D7
:10E3F000BB1D1A880449054800230DF071F8C0467A
:10E40000BD4602B080BDC046912C0020802C00206B
:10E4100090B58DB000AF194B5B7D5BB2DB435BB257
:10E42000164A127D52B213405BB2DAB21823FC18BE
:10E430003B00134918000DF0E7F83A00230013CA17
:10E4400013C303CA03C30023FB620CE01823FA18AA
:10E45000FB6A5B00D31804331B881800FFF7AAFF80
:10E46000FB6A0133FB621823FB181B68FA6A9A42A5
:10E47000ECD3C046C046BD460DB090BD7C2C0020FC
:10E48000802C002080B582B000AF0200FB1D1A7006
:10E49000074B1B68FA1D1278012191400A001340B6
:10E4A0005A1E9341DBB21800BD4602B080BDC04683
:10E4B0007C2C002080B582B000AF0200FB1D1A70DA
:10E4C000064B1B68FA1D1278012191400A001A437D
:10E4D000024B1A60C046BD4602B080BD7C2C0020B5
:10E4E00080B584B000AF78607B681B881A2B2ED073
:10E4F0004EDC102B02D0112B23D049E0FFF788FF10
:10E500007B689B881800FFF717FF03001A000123A0
:10E510005340DBB2002B03D00420FCF735FE37E07C
:10E520007B689A7D0F203B18023A51424A411A708B
:10E530007B689A883B181B78174918480CF0D0FF65
:10E5400026E07B689B881800FFF74CFF20E07B6883
:10E550009A887B681B7A1B061B0FDBB2012199424C
:10E560009B415B42DBB20E490C480CF0B9FF7B6863
:10E570009A887B681B7A1B061B0FDBB2022199422B
:10E580009B415B42DBB2074904480CF0A9FFC0463F
:10E59000C046BD4604B080BD922C0020802C0020D7
:10E5A000932C0020942C0020B0B584B000AF020062
:10E5B000BB1D1A800F23FB1800221A70134B197D04
:10E5C000BB1D1A88124B18000CF0EEFF031E15D06D
:10E5D0000E4B997D0E257C19BB1D1A880C4B18001B
:10E5E0000CF0E2FF030023707B191B78002B01D095
:10E5F000022200E001220F23FB181A700F23FB18E0
:10E600001B781800BD4604B0B0BDC0467C2C00206D
:10E61000802C0020B0B584B000AF0200BB1D1A8072
:10E620000F23FB1800221A70164B197D0E257C193A
:10E63000BB1D1A88144B18000CF0B6FF03002370A2
:10E640007B191B78002B15D00E4B597D0D257C199D
:10E65000BB1D1A880C4B18000CF0A6FF030023709A
:10E660007B191B78002B01D0022200E001220F232E
:10E67000FB181A700F23FB181B781800BD4604B056
:10E68000B0BDC0467C2C0020802C002080B582B01C
:10E6900000AF0200BB1D1A80064BD97DBB1D1A8836
:10E6A000054B18000CF080FF03001800BD4602B0B7
:10E6B00080BDC0467C2C0020802C002080B582B01C
:10E6C00000AF0200BB1D1A80064B197EBB1D1A88C5
:10E6D000054B18000CF068FF03001800BD4602B09F
:10E6E00080BDC0467C2C0020802C002080B582B0EC
:10E6F00000AF7860054B1A7D7B68054918000CF067
:10E7000083FF7868BD4602B080BDC0467C2C0020E7
:10E71000802C002080B582B000AFFB1D00221A7053
:10E7200018E0FB1D1B781800FFF7ACFE03001A0071
:10E7300001235340DBB2002B07D0FB1D1B781800D0
:10E74000FFF7B8FEFB1D1B7809E0FB1D1A78FB1DC7
:10E7500001321A70FB1D1B78172BE2D91823180001
:10E76000BD4602B080BD000080B582B000AF02009F
:10E77000BB1D1A807B1D0A1C1A707B1D1B7818009C
:10E78000FFF780FE031E0CD07B1D1B78074AD318B1
:10E79000597EBB1D1A88064B18000CF005FF0300BC
:10E7A00000E000231800BD4602B080BD7C2C002094
:10E7B000802C002090B583B000AF04000800110049
:10E7C000BB1D221C1A807B1D021C1A703B1D0A1CDB
:10E7D0001A707B1D1B781800FFF754FE031E0FD024
:10E7E0007B1D1B7810331A00074BD318093319000F
:10E7F0003B1D1C78BB1D1A88044823000CF070FEDA
:10E80000C046BD4603B090BD7C2C0020802C00206B
:10E8100080B582B000AF0200FB1D1A70FB1D1B7893
:10E820001800FFF72FFE031E05D0FB1D1B78044ABE
:10E83000D3185B7E00E000231800BD4602B080BD07
:10E840007C2C002080B582B000AF02003960BB1D77
:10E850001A80BB1D1B88DAB23B681A70BB1D1B886F
:10E860001B0A9AB23B680133D2B21A700223180015
:10E87000BD4602B080BDA0DF7047C0461800A2DFD1
:10E880007047C0461800B0B58AB000AFF861B961F2
:10E89000BB695A1E9341DBB27B627B6A002B02D1BB
:10E8A0000020FCF771FCFB695A1E9341DBB23B620E
:10E8B0003B6A002B02D10020FCF766FCBB691A689A
:10E8C0005B68D2B2FB691A70BB691A685B6819068B
:10E8D000100A38613869084338611B0A7B61FB699B
:10E8E00001333A7C1A70BB691A685B681904100C12
:10E8F000B860B8680843B8601B0CFB60FB69023362
:10E900003A7A1A70BB691A685B681902140E0C43D4
:10E910001D0EFB690333E2B21A70BB691A685B68AB
:10E920001B003B6000237B60FB6904333A781A705C
:10E93000BB699A68FB690533D2B21A70BB699B68E0
:10E940001A0AFB690633D2B21A70BB699B681A0CAB
:10E95000FB690733D2B21A70C046BD460AB0B0BDDB
:10E9600090B587B000AF786039601723FB1800229C
:10E970001A703B685A1E9341DBB23B613B69002B26
:10E9800002D10020FCF700FC7B685A1E9341DBB2E9
:10E99000FB60FB68002B02D10020FCF7F5FB17247D
:10E9A0003B191B783A19591C11701A007B689B1887
:10E9B0003A6812781A703B6858883B191B787A6855
:10E9C000D3181900FFF73EFF030019003B193A194D
:10E9D00012788A181A703B6898883B191B787A68F5
:10E9E000D3181900FFF72EFF030019003B193A193D
:10E9F00012788A181A703B68D8883B191B787A6895
:10EA0000D3181900FFF71EFF030019003B193A192C
:10EA100012788A181A703B191B78073B5A425341E7
:10EA2000DBB2BB60BB68002B02D10020FCF7ACFB63
:10EA3000C046BD4607B090BDF0B595B000AFB96017
:10EA400011007B600E23FB18021C1A800C23FB189C
:10EA50000A1C1A80BB685A1E9341DBB2FB64FB6C34
:10EA6000002B02D10020FCF78FFB0C23FB181B8826
:10EA70005A1E9341DBB2BB64BB6C002B02D1002059
:10EA8000FCF782FB28243B191C22002118000FF000
:10EA9000EFF820003B181A7802210A431A7004008C
:10EAA0003B1900225A603B190022DA603B19002210
:10EAB0001A613B1900225A613B1900229A614421D4
:10EAC0007B1801229A707B180E203A1812881A803F
:10EAD00010257B190322002118000FF0C9F87B19BB
:10EAE0007A6812781A707B197A6852785A707B1992
:10EAF0009A7806218A43111C02220A439A707B19D4
:10EB00009A7808218A439A707B199A7810218A434F
:10EB10009A707B199A7801218A439A701426BB193E
:10EB20001422002118000FF0A3F831007B184422B2
:10EB3000BA181A607B187A195A607B180C203A1898
:10EB400012881A817B1800225A817B183A18128881
:10EB50009A817B18BA681A61054B1888BB6E7A18BF
:10EB60003919FFF78CFE03001800BD4615B0F0BD43
:10EB7000B02C002090B58BB002AF786018217B18C4
:10EB800001229A707B18814A1A80814A7B181900E9
:10EB90000120FFF770FE0300FB61FB69002B01D031
:10EBA000FB69EEE07B681B88002B14D07B685968FA
:10EBB0007B681A887B683C331800764C764B009350
:10EBC00003002000FFF738FF0300FB61FB69002B07
:10EBD00001D0FB69D5E07B681B89002B14D07B68D2
:10EBE000D9687B681A897B683C3318006B4C6C4B86
:10EBF000009303002000FFF71FFF0300FB61FB6988
:10EC0000002B01D0FB69BCE07B681B8A002B14D071
:10EC10007B6859697B681A8A7B683C331800614CB1
:10EC2000614B009303002000FFF706FF0300FB6128
:10EC3000FB69002B01D0FB69A3E07B681B8B002BD9
:10EC400014D07B68D9697B681A8B7B683C331800C9
:10EC5000564C574B009303002000FFF7EDFE0300D6
:10EC6000FB61FB69002B01D0FB698AE07B681B8C90
:10EC7000002B14D07B68596A7B681A8C7B683C3304
:10EC800018004C4C4C4B009303002000FFF7D4FEBF
:10EC90000300FB61FB69002B01D0FB6971E07B681D
:10ECA0001B8D002B14D07B68D96A7B681A8D7B681A
:10ECB0003C331800414C424B009303002000FFF707
:10ECC000BBFE0300FB61FB69002B01D0FB6958E030
:10ECD0007B681B6B002B19D07B681A6B10243B19C7
:10ECE00011001800FFF7CFFD7B683C331A0039197B
:10ECF0003448354B009313000822FFF79DFE0300B4
:10ED0000FB61FB69002B01D0FB693AE07B685B6B20
:10ED1000002B17D07B685B6B19687B685B6B1B797A
:10ED20009AB27B683C331800284C294B00930300AF
:10ED30002000FFF781FE0300FB61FB69002B01D07F
:10ED4000FB691EE07B689B6B002B19D07B689A6B7C
:10ED500008243B1911001800FFF702FE7B683C33C2
:10ED60001A0039191B481C4B009313000722FFF7A8
:10ED700063FE0300FB61FB69002B01D0FB6900E02F
:10ED800000231800BD4609B090BDC0460A18000017
:10ED9000B02C0020292A0000B42C0020242A0000D6
:10EDA000BC2C0020252A0000C42C0020272A0000AB
:10EDB000CC2C0020262A0000D42C0020282A000079
:10EDC000DC2C0020232A0000E42C00202A2A00004A
:10EDD000EC2C0020502A0000F42C0020A0DF70470B
:10EDE000C0461800A1DF7047C0461800A2DF704778
:10EDF000C0461800A3DF7047C0461800A4DF704764
:10EE0000C0461800A6DF7047C046180065DF70478F
:10EE1000C046180080B582B000AF02003960BB1D4B
:10EE20001A80BB1D1B88DAB23B681A70BB1D1B8899
:10EE30001B0A9AB23B680133D2B21A70022318003F
:10EE4000BD4602B080BD90B585B000AF040008009B
:10EE50001100BB1D221C1A807B1D021C1A703B1D59
:10EE60000A1C1A7008217B1800221A607B18BA1D30
:10EE700012881A807B187A1D12789A707B183A1DB6
:10EE80001278DA700C203B187A1812681A603A1857
:10EE9000002311880904090C1B0C1B040B43528826
:10EEA00012041B041B0C13431800BD4605B090BD93
:10EEB000B0B586B000AF786039603B6899887A68F1
:10EEC000BB235B00D1527B685B89002B2CD01325C0
:10EED0007B1901221A7008243B190822002118000E
:10EEE0000EF0C6FE21007B1801221A807B1800223A
:10EEF0005A807B187A195A607A68BB235B00D05A13
:10EF00007B685B897A181900FFF778FF03007B6143
:10EF10007B69002B08D07B685B68002B04D07B6882
:10EF20005B687A6910009847C046BD4606B0B0BD20
:10EF300080B582B000AF786039607A68BB235B002F
:10EF400001214942D152C046BD4602B080BD80B5C4
:10EF500088B000AF786039603B685B89012B1BD1BA
:10EF60007B681B68002B17D03B681B7B002B02D0F3
:10EF7000012B05D010E00C23FB1800221A7004E0CE
:10EF80000C23FB1801221A70C0467B681B680C22F8
:10EF9000B9187A6810009847BD4608B080BD80B5A2
:10EFA00088B000AF786039603B685B89012B1BD16A
:10EFB0007B681B68002B17D03B681B7B002B02D0A3
:10EFC000012B05D010E00C23FB1805221A7004E079
:10EFD0000C23FB1806221A70C0467B681B680C22A3
:10EFE000B9187A6810009847BD4608B080BD90B542
:10EFF0008BB000AFF860B9607A607B685B89022BE8
:10F0000022D1FB681B68002B1ED07B680C331800D4
:10F0100001F0B9FA031E04D01423FB1802221A705F
:10F0200003E01423FB1803221A7014243B19BA6856
:10F0300004331100042218000EF0C8FDFB681B68A1
:10F040003919FA6810009847C046BD460BB090BD0C
:10F0500090B58BB000AFF860B9607A60FB681B6850
:10F06000002B1FD014243B1904221A703B197A6814
:10F0700004331100042218000EF0A8FDBB68DA89E1
:10F0800021007B181A81BB681A8A7B185A81BB68D9
:10F0900012331A007B18DA60FB681B687918FA686B
:10F0A00010009847C046BD460BB090BD90B58BB0E0
:10F0B00000AFF860B9607A60FB681B68002B15D060
:10F0C00014243B1907221A703B19BA680433110043
:10F0D000042218000EF07AFD21007B187A681A616C
:10F0E000FB681B687918FA6810009847C046BD464F
:10F0F0000BB090BD80B586B000AFF8607A600A238F
:10F10000FB180A1C1A801723FB1800221A7025E02E
:10F1100017203B181A78F96813009B009B185B00B6
:10F12000CB1818331B880A22BA1812889A420FD1BA
:10F130003B181B780F481A000121FFF784FE0300DB
:10F140001A007B68111C1980120C5A8001230DE0F3
:10F1500017217B181A787B1801321A70FB689B7C88
:10F160001722BA1812789A42D2D300231800BD464B
:10F1700006B080BD4D2A000090B587B000AFF860A2
:10F180007A600A23FB180A1C1A801723FB18002236
:10F190001A7025E017203B181A78F96813009B00B5
:10F1A0009B185B00CB1814331B880A22BA181288EC
:10F1B0009A420FD13B181B7842481A000121FFF7F1
:10F1C00042FE03001A007B68111C1980120C5A8041
:10F1D000012373E017217B181A787B1801321A700B
:10F1E000FB689B7C17217A1812789A42D2D37B183D
:10F1F00000221A7026E017243B191A78F9687A2041
:10F2000013009B009B185B00CB181B181B880A225D
:10F21000BA1812889A420FD13B191B7829481A0054
:10F220000221FFF710FE03001A007B68111C1980F1
:10F23000120C5A80012341E017217B181A787B18A1
:10F2400001321A70FB6878229B5C17217A181278B9
:10F250009A42D0D37B1800221A7026E017243B195B
:10F260001A78F968E02013009B009B185B00CB180C
:10F270001B181B880A22BA1812889A420FD13B1910
:10F280001B7810481A000321FFF7DDFD03001A0068
:10F290007B68111C1980120C5A8001230EE0172183
:10F2A0007B181A787B1801321A70FB68DE229B5C8F
:10F2B0001722BA1812789A42D0D300231800BD46FC
:10F2C00007B090BD4D2A000090B585B000AF7860C2
:10F2D00039603B680633FB60FB681A887968B7239E
:10F2E0005B00CB5A9A4206D1FA687B68110018007D
:10F2F000FFF72DFE95E0FB681A887B685B899A42D0
:10F3000006D1FA687B6811001800FFF748FE88E014
:10F31000FB681A887968A9235B00CB5A9A4211D1FD
:10F32000424B002200211800FFF78DFD03001A0058
:10F3300008217B181A60FA6879187B681800FFF7B3
:10F3400056FE6EE0FB681A887968A7235B00CB5AEB
:10F350009A4211D1354B002200211800FFF773FDAE
:10F3600003001A0008217B181A607A1839687B6834
:10F370001800FFF76DFE54E0FB681A887968B12326
:10F380005B00CB5A9A4211D1294B00220021180070
:10F39000FFF759FD03001A0008217B181A60FA686C
:10F3A00079187B681800FFF722FE3AE0FB681A889C
:10F3B0007968AF235B00CB5A9A4211D11C4B0022D3
:10F3C00000211800FFF73FFD03001A0008217B18F9
:10F3D0001A607A1839687B681800FFF739FE20E058
:10F3E000FB68198808243A197B681800FFF782FE29
:10F3F000031E06D0FA6839197B681800FFF7F7FD7D
:10F400000FE0FB68198808243A197B681800FFF799
:10F41000B3FE031E05D03A1939687B681800FFF760
:10F4200017FEC046BD4605B090BDC046222A00006A
:10F43000332A000090B585B000AF786039603B6832
:10F440000633FB60FB681B78012B10D1FB685988E1
:10F4500008243A197B681800FFF78EFE031E07D0B8
:10F460003A6839197B681800FFF720FE00E0C046B3
:10F47000BD4605B090BD80B582B000AF7860396000
:10F480003B681B88512B1DD023DC502B13D020DC74
:10F49000102B02D0112B07D01BE03A687B681100BB
:10F4A0001800FFF705FD15E03A687B6811001800A9
:10F4B000FFF73EFD0EE03A687B6811001800FFF789
:10F4C00003FF07E03A687B6811001800FFF7B2FFFE
:10F4D00000E0C046C046BD4602B080BDF0B593B066
:10F4E00000AF786039602C243B191C2200211800E1
:10F4F0000EF0BEFB20003B181A7802210A431A7056
:10F500003B181A7804210A431A7004003B190022A0
:10F510005A603B190022DA603B1900221A613B193C
:10F5200000225A613B1900229A6114217B180122A2
:10F530009A707B18294A1A8010257B190322002112
:10F5400018000EF095FB7B193A6812781A707B1937
:10F550003A6852785A707B199A7806218A43111CAE
:10F5600002220A439A707B199A7808218A439A707A
:10F570007B199A7810218A439A707B199A78012115
:10F580008A439A701826BB191422002118000EF025
:10F590006FFB0F203B1801221A70BB1914217A1837
:10F5A0001A60BB197A195A6031007B1801221A813E
:10F5B0007B1800225A817B1801229A817B183A1805
:10F5C0001A617B6818897B680A337A183919FFF742
:10F5D0000DFC03001800BD4613B0F0BD4E2A00001C
:10F5E000F0B597B000AFF860B9603B60BB1D1A8002
:10F5F000BB681B7810221340DBB2002B23D03424CD
:10F600003B190322002118000EF032FB20003B18AA
:10F610001A780F218A43111C01220A431A703B18E1
:10F620001A780F210A40111C10220A431A703B1845
:10F630003A6F12785A703B189A7806218A43111C47
:10F6400002220A439A7038243B191C220021180018
:10F650000EF00EFB21007B18BA6812781A707B1826
:10F6600000225A607B180022DA607B1800221A619F
:10F67000BB681B7810221340DBB2002B02D034236E
:10F68000FA1800E000223826BB195A61BB19002283
:10F690009A611C217B1801229A707B185D4A1A809E
:10F6A00018243B190322002118000EF0E1FA3B193F
:10F6B0003A6F52781A703B193A6F92785A703B1928
:10F6C0009A7806218A43111C02220A439A70642305
:10F6D00010229446BC4463441A783B1901210A4025
:10F6E000D0009A7808218A43111C021C0A439A70A0
:10F6F0003B199A7810218A439A703B199A78012114
:10F700000A439A7020257B191422002118000EF05C
:10F71000AFFA29007B181C22BA181A607B183A1914
:10F720005A607B1800221A817B1800225A817B18AC
:10F73000BA1D12889A817B1800221A61FB68188909
:10F74000BB6F7A18B919FFF751FB03007B657B6D1E
:10F75000002B01D07B6D59E01C26BB1901229A7049
:10F76000BB192D4A1A8018257B1903220021180085
:10F770000EF07EFA7B193A6F52781A707B193A6F45
:10F7800092785A707B199A7806218A43111C0222BA
:10F790000A439A707B199A7808218A439A707B19D8
:10F7A0009A7810218A439A707B199A7801218A43AA
:10F7B0009A7020243B191422002118000EF058FAE8
:10F7C0003B19BA191A603B197A195A603A6814251C
:10F7D0007B191100180000F0EDFE03009AB2210021
:10F7E0007B181A817B1800225A817B181A897B1892
:10F7F0009A817B187A191A61BB6F1888BB6F08331E
:10F800001A007B181900FFF7F5FA03001800BD462F
:10F8100017B0F0BD4D2A000008290000F0B599B0DE
:10F8200000AF786039603C243B191C22002118008D
:10F830000EF01EFA20003B181A7802210A431A70B3
:10F8400004003B1900225A603B190022DA603B1980
:10F8500000221A613B1900225A613B1900229A6169
:10F8600024217B1801229A707B187E4A1A80202559
:10F870007B190322002118000EF0FAF97B193A686F
:10F880002C21525C1A707B193A682D21525C5A70F7
:10F890007B199A7806218A43111C02220A439A7026
:10F8A0007B199A7808218A439A707B199A781021DB
:10F8B0008A439A707B199A7801210A439A70282604
:10F8C000BB191422002118000EF0D2F931007B1868
:10F8D0002422BA181A607B187A195A603B689A8CED
:10F8E0007B181A817B1800225A813B689A8C7B18FE
:10F8F0009A813B681A6A7B181A617B6818897B6851
:10F900004533FF337A183919FFF770FA0300BB65E6
:10F91000BB6D002B01D0BB6DA0E03B6826229B5C39
:10F92000002B05D03B689B6A002B01D1072395E093
:10F930000023FB6589E024217B1801229A707B1843
:10F94000494A1A8020243B190322002118000EF096
:10F950008FF920003B181A780F218A43111C0122CD
:10F960000A431A703B181A780F210A40111C2022F2
:10F970000A431A703B185A780F218A435A703B1871
:10F980005A780F210A405A703B189A7806218A4308
:10F99000111C02220A439A703B189A7808218A4364
:10F9A0009A703B189A7810218A439A703B189A787B
:10F9B00001218A439A703B689A6AFB6D9B00D318B9
:10F9C0001022BA180F2179181800FFF71FFA030048
:10F9D000BB65BB6D002B01D0BB6D3FE028243B19FC
:10F9E0001422002118000EF043F921007B18242274
:10F9F000BA181A607B182022BA185A600F23FB1815
:10FA00001B789AB27B181A817B1800225A817B18C6
:10FA10001A897B189A817B181022BA181A617A68A1
:10FA2000A2235B00D05A7B684D33FF331A007B184A
:10FA30001900FFF7DFF90300BB65BB6D002B01D098
:10FA4000BB6D0BE0FB6D0133FB653B6826229B5CC5
:10FA50001A00FB6D934200DA6DE700231800BD46E3
:10FA600019B0F0BD4B2A000007290000F0B595B091
:10FA700000AFF860080011007B600A26BB19021C69
:10FA80001A800823FB180A1C1A8030257B190322D0
:10FA9000002118000EF0ECF87B191A780F218A4328
:10FAA000111C01220A431A707B191A780F210A408F
:10FAB000111C10220A431A707B197A6812785A7046
:10FAC0007B199A7806218A43111C02220A439A70F4
:10FAD00034243B191C22002118000EF0C9F8200024
:10FAE0003B181A7802210A431A707B689B780F2210
:10FAF0001340DBB25A1E9341DAB204003B180121D5
:10FB00000A40D0001A7808218A43111C021C0A43BB
:10FB10001A703B191A7810210A431A703B190022F7
:10FB20005A603B190022DA603B1900221A613B1926
:10FB30007A195A613B1900229A6118217B18012217
:10FB40009A707B18BA1912881A8014257B1903221F
:10FB5000002118000EF08CF87B197A6852781A7020
:10FB60007B197A6892785A707B199A7806218A43B1
:10FB7000111C02220A439A707B199A7808218A4341
:10FB80009A707B199A7810218A439A707B199A7817
:10FB900001218A439A701C26BB19142200211800E7
:10FBA0000EF066F831007B181822BA181A607B181C
:10FBB0007A195A607B1800221A817B1800225A8118
:10FBC0007B180822BA1812889A817B1800221A61C1
:10FBD000FB681889BB6E7A183919FFF707F903001B
:10FBE0001800BD4615B0F0BDF0B591B000AF78601B
:10FBF000396024243B191C22002118000EF038F82B
:10FC000020003B181A7802210A431A703B181A7810
:10FC100008210A431A703B181A7804210A431A7003
:10FC200004003B1900225A603B190022DA603B199C
:10FC300000221A613B1900225A613B1900229A6185
:10FC40000C217B1801229A707B18294A1A800825FA
:10FC50007B190322002118000EF00AF87B193A687C
:10FC60004621525C1A707B193A684721525C5A70DF
:10FC70007B199A7806218A43111C02220A439A7042
:10FC80007B199A7808218A439A707B199A781021F7
:10FC90008A439A707B199A7801218A439A701026B8
:10FCA000BB191422002118000DF0E2FF31007B186F
:10FCB0000C22BA181A607B187A195A607B18002235
:10FCC0001A817B1800225A817B1801229A817B18A5
:10FCD00000221A617B6818897B685733FF337A18D2
:10FCE0003919FFF783F803001800BD4611B0F0BDC5
:10FCF000322A0000B0B584B000AF786039603B684C
:10FD00001B880F257C197A6811001800FFF782F80C
:10FD10000300237028003B181B783A18591C1170F7
:10FD20001A007B689B183A6892781A703B181B7807
:10FD30003A18591C11701A007B689B183A68D278DF
:10FD40001A703B181B78043B5A425341DBB2BB602C
:10FD5000BB68002B02D10020FBF716FA0F23FB181B
:10FD60001B781800BD4604B0B0BD0000F0B593B0DC
:10FD700000AF7860396028243B191C22002118004C
:10FD80000DF076FF20003B181A7802210A431A7002
:10FD900005007B1900225A607B190022DA607B196A
:10FDA00000221A617B1900225A617B1900229A6194
:10FDB00010217B1801229A707B18324A1A800C2677
:10FDC000BB190322002118000DF052FFBB193A683D
:10FDD0003421525C1A70BB193A683521525C5A7052
:10FDE000BB199A7806218A43111C02220A439A7091
:10FDF000BB199A7808218A439A70BB199A78102106
:10FE00008A439A70BB199A7801218A439A703B6899
:10FE100030331A004723FC1808203B181100180043
:10FE2000FFF768FF0300237014243B1914220021FC
:10FE300018000DF01DFF21007B181022BA181A605F
:10FE40007B18BA195A604723FB181B789AB27B18A3
:10FE50001A817B1800225A817B181A897B189A8193
:10FE60007B1808203A181A617B6818897B68673309
:10FE7000FF337A187919FEF7B9FF03001800BD4661
:10FE800013B0F0BD4A2A0000F0B593B000AF78601F
:10FE900039602C243B191C22002118000DF0E8FECB
:10FEA00020003B181A7804210A431A7004003B19F9
:10FEB00000225A603B190022DA603B1900221A61C5
:10FEC0003B1900225A613B1900229A6114217B18C8
:10FED00001229A707B182B4A1A8010257B19032265
:10FEE000002118000DF0C4FE7B193A6812781A70D0
:10FEF0007B193A6852785A707B199A7806218A439E
:10FF0000111C02220A439A707B199A7808218A43AD
:10FF10009A707B199A7810218A439A707B199A7883
:10FF200001218A439A700F23FB1800221A701826A9
:10FF3000BB191422002118000DF09AFE31007B1825
:10FF40001422BA181A607B187A195A607B18012299
:10FF50001A817B1800225A817B1801229A817B1812
:10FF60000F22BA181A617B6818897B686F33FF33D8
:10FF70007A183919FEF73AFF03001800BD4613B08E
:10FF8000F0BDC0464C2A0000F0B58BB004AF7860DD
:10FF900039603B689B7A002B6CD03B68DB68002B98
:10FFA00068D01723FB1800221A705CE03B68DA68FF
:10FFB00017257B191B78DB00D3183B6108243B19FC
:10FFC0000122002118000DF053FE3B191A7802217E
:10FFD0000A431A703B699B790F221340DBB25A1E09
:10FFE0009341DAB23B1901210A40D0001A78082166
:10FFF0008A43111C021C0A431A703B191A781021FB
:020000022000DC
:100000000A431A703B691E883B6902339C463B6970
:10001000191D3B69DB79DB07DB0FDBB25A1E93410D
:10002000D8B27B191A7813009B009B185B00103321
:100030007A68D31804333D197C68029301900091CB
:100040006346320029002000FFF7CAFA0300FB6074
:10005000FB68002B01D0FB680DE017217B181A7894
:100060007B1801321A703B689B7A1722BA181278F3
:100070009A429BD300231800BD4607B0F0BDF0B5EF
:100080008BB004AF786039603B681B7C002B5ED07E
:100090003B685B69002B5AD01723FB1800221A70AB
:1000A0004EE03B685A6917257B191B78DB00D31893
:1000B0003B6108243B190122002118000DF0D8FDF6
:1000C0003B191A7802210A431A703B191A78082141
:1000D0000A431A703B191A7804210A431A703B69C3
:1000E0001E883B6902339C463B69191D3B69DB79DD
:1000F000DB07DB0FDBB25A1E9341D8B27B191A78AB
:1001000013009B009B185B0078337A68D318023386
:100110003D197C68029301900091634632002900EA
:100120002000FFF75DFA0300FB60FB68002B01D0A5
:10013000FB680DE017217B181A787B1801321A70C2
:100140003B681B7C1722BA1812789A42A9D3002365
:100150001800BD4607B0F0BDF0B58BB004AF7860B5
:1001600039603B681B7E002B58D03B68DB69002B55
:1001700054D01723FB1800221A7048E03B68DA6954
:1001800017257B191B78DB00D3183B6108243B192A
:100190000122002118000DF06BFD3B191A78022195
:1001A0000A431A703B191A7808210A431A703B69EE
:1001B0001E883B6902339C463B69191D3B69DB790C
:1001C000DB07DB0FDBB25A1E9341D8B27B191A78DA
:1001D00013009B009B185B00E0337A68D3183D192D
:1001E0007C68029301900091634632002900200050
:1001F000FFF7F6F90300FB60FB68002B01D0FB68FA
:100200000DE017217B181A787B1801321A703B68B1
:100210001B7E1722BA1812789A42AFD30023180017
:10022000BD4607B0F0BD80B586B000AF78603960DC
:100230001723FB1800221A701BE07B6818893B68A3
:100240009A6B1723FB181B785B00D3181B880E22B0
:10025000BA181900FEF7C6FD03003B613B69002B8D
:1002600001D03B690EE017217B181A787B18013208
:100270001A703B6836229B5C1722BA1812789A4291
:10028000DBD300231800BD4606B080BD80B586B024
:1002900002AF786039603B689B7A0A2B07D83B68CD
:1002A0001B7C0A2B03D83B681B7E0A2B01D9072332
:1002B000E3E03B681A687B681A603B685A687B68B1
:1002C0005A603B689A7A7B689A743B68197C7B68B1
:1002D000782299543B68197E7B68DE2299547A68AB
:1002E000BB235B0001214942D15208217B18012226
:1002F0009A707B18634A1A807B6808331A007B184F
:1003000019000120FEF76AFD0300FB60FB68002B6B
:1003100001D0FB68B1E03A687B6811001800FFF774
:1003200082FF0300FB60FB68002B01D0FB68A4E0A8
:100330003B681B7A002B03D13B685B7A002B0ED005
:100340003B683C331A007B6811001800FFF7C6F8C1
:100350000300FB60FB68002B01D0FB688DE03A686E
:100360007B6811001800FFF70FFE0300FB60FB68BD
:10037000002B01D0FB6880E03A687B681100180010
:10038000FFF77DFE0300FB60FB68002B01D0FB68DC
:1003900073E03A687B6811001800FFF7DDFE030088
:1003A000FB60FB68002B01D0FB6866E03A687B6865
:1003B00011001800FFF732FA0300FB60FB68002B06
:1003C00001D0FB6859E03B681B7A002B20D03B68CA
:1003D00043331A007B684F33FF332B49786800930F
:1003E00013000822FFF742FB0300FB60FB68002BB1
:1003F00001D0FB6841E03A687B6811001800FFF704
:10040000F3FB0300FB60FB68002B01D0FB6834E0CA
:100410003B685B7A002B13D03B6840331A007B6843
:100420005F33FF3319497868009313000822FFF700
:100430001DFB0300FB60FB68002B01D0FB681CE088
:100440003A687B6811001800FFF790FC0300FB601E
:10045000FB68002B01D0FB680FE03B683E331A00BD
:100460007B6811001800FFF70FFD0300FB60FB68BD
:10047000002B01D0FB6800E000231800BD4604B04B
:1004800080BDC04612180000222A0000332A000056
:10049000F0B58DB000AFF860080011007B600B2450
:1004A0003B19021C1A7008257B190A1C1A80FB686C
:1004B0009B7C3A1912789A4248D23B191A78130059
:1004C0009B009B185B001033FA68D3180433BB629F
:1004D000FA68BB235B00D35A204A934233D01626D6
:1004E000BB197A1912881A8018243B19102200218E
:1004F00018000DF0BDFBBB6A1A8821007B181A801A
:100500007B1801229A707B1800229A807B18BA19F6
:100510009A607B187A68DA60FA68BB235B00D35A6A
:100520007A1811001800FEF76DFC0300FB62FB6AED
:10053000002B0DD1BB191B887A1912889A4207D05B
:100540000C23FB6204E00823FB6201E00723FB624B
:10055000FB6A1800BD460DB0F0BDC046FFFF0000AD
:1005600080B582B000AF78607B681B781AB27B6878
:1005700001331B781B021BB213431BB29BB2180042
:10058000BD4602B080BDB0B584B000AF78600E2526
:100590007C197B681800FFF7E3FF030023807B19B9
:1005A0001B88012213405A1E9341DBB21800BD463E
:1005B00004B0B0BD80B584B000AF786039600F2062
:1005C0003B1800221A703B181B783A18591C1170FE
:1005D0001A007B689B183A6812781A703B181B78CF
:1005E0003A18591C11701A007B689B183A685278A7
:1005F0001A703B181B78023B5A425341DBB2BB6076
:10060000BB68002B02D10020FAF7BEFD0F23FB18B8
:100610001B781800BD4604B080BD80B582B000AF25
:10062000786039603B6818000DF0B8FB03009AB29F
:100630007B681A807B683A685A60C046BD4602B043
:1006400080BD80B582B000AF78607B680322134024
:100650005A425341DBB21800BD4602B080BD0000D3
:1006600080B582B000AF0200FB1D1A70054B1A78EE
:10067000FB1D1B781343DAB2024B1A70C046BD460D
:1006800002B080BDFC2C002080B582B000AF02001B
:10069000FB1D1A70FB1D1B785BB2DB435BB2064A85
:1006A000127852B213405BB2DAB2034B1A70C046F2
:1006B000BD4602B080BDC046FC2C002080B582B093
:1006C00000AF0200FB1D1A70064B1B78FA1D127852
:1006D0001340DBB25A1E9341DBB21800BD4602B094
:1006E00080BDC046FC2C002080B584B000AF78608F
:1006F0000023FB600FE00C4BFA689200D358002BEC
:1007000006D0094BFA689200D3587A6810009847CF
:10071000FB680133FB60FB68072BECD9C046C04681
:10072000BD4604B080BDC046002D002080B582B01B
:1007300000AF786039607B681B78062B4FD89A0031
:10074000294BD3181B689F463B6800221A7047E06C
:100750003B6801221A707B681A893B689A817B6822
:100760009A883B68DA817B68DA683B689A6037E090
:100770003B6802221A707B681A893B689A817B6801
:100780009A883B68DA817B68DA683B689A607B68A4
:100790001B7C063B5A425341DAB23B681A741FE095
:1007A0003B6803221A707B68DA883B689A817B6811
:1007B0001A893B68DA817B68DA683B689A600FE0E7
:1007C0003B6804221A707B68DA883B689A813B6830
:1007D0000022DA8104E03B6805221A7000E0C0467E
:1007E000C046BD4602B080BD706F030080B582B0C8
:1007F00000AF78607B689B88084A934205D07B688D
:100800001B88002B01D0012300E000231A1C0123C8
:100810001340DBB21800BD4602B080BDFFFF0000F0
:1008200080B582B000AF78607B68002B11D00D4B93
:100830001B687A689A420CD30A4B5B687A689A42C2
:1008400007D87B681800FFF7FCFE031E01D00123C8
:1008500000E000231A1C01231340DBB21800BD4640
:1008600002B080BDFC29002080B584B000AF786064
:1008700039600023FB6013E0FB68DB007A68D31863
:100880001B681800FFF7DDFE03001A000123534028
:10089000DBB2002B01D0002307E0FB680133FB60D3
:1008A000FA683B689A42E7D301231800BD4604B0BA
:1008B00080BD000080B582B000AF78607B681B68A7
:1008C0000B4A934201D003230DE07B6804331B687D
:1008D000084A934204D0084A934203D1012302E01C
:1008E000002300E003231800BD4602B080BDC046CF
:1008F000DEC0ADDEFE011EF1FF011EF180B584B049
:1009000000AF78600023FB600BE0FB689B007A6817
:10091000D3181B68013301D0002306E0FB680133C4
:10092000FB60FB68FF2BF0D901231800BD4604B023
:1009300080BD000080B582B000AF0200BB1D1A80F0
:100940003B1D0A1C1A80BB1D1B88104A1B01D318B3
:10095000083319883B1D3A1D12888A181A80BB1D5E
:100960001B880A4A1B01D3180A3319883B1D3A1DFC
:1009700012888A181A803B1D1A88FF210023914291
:100980005B41DBB21800BD4602B080BDE42D002003
:1009900080B584B000AF786039600A23FB600A2319
:1009A000FB1800221A8025E00A217B181B88164AB2
:1009B0001B01D31804331B683A689A4214D97B1878
:1009C0001B88114A1B01D31804331B688022D200F4
:1009D000944663443A689A4206D20023FB607B68DF
:1009E0007A1812881A800AE00A217B181A887B1864
:1009F00001321A800A23FB181B88012BD4D9FB680B
:100A00001800BD4604B080BDE42D002080B588B03C
:100A100000AFF860B9607A60FB688022D20094462B
:100A20006344BB611F23FB1800221A70FB68083364
:100A3000FB60BB6802221A802CE0FB687B617B694B
:100A40001800FFF7D3FE03001A0001235340DBB266
:100A5000002B04D01F23FB1801221A7009E07B69C8
:100A60009A68164B1B689A4203D97B699A68134BA4
:100A70001A607B695B8803339B00FA68D318FB60BC
:100A8000BB681A887B695B88D3189BB203339AB220
:100A9000BB681A80FA68BB699A4203D2FB681B687C
:100AA0000133CAD17B68002B04D07B681F22BA189F
:100AB00012781A70C046BD4608B080BD202D0020B7
:100AC00080B582B000AF78600A00BB1C1A807B68DA
